:020000040800F2
:1000000000200020FD100008FF0200080103000886
:1000100000000000000000000000000000000000E0
:1000200000000000000000000000000003030008C2
:10003000000000000000000005030008070300089E
:100040004D110008000000004D1100084D1100087E
:100050004D1100084D1100084D1100084D11000808
:10006000000000004D1100084D1100084D1100085E
:100070004D1100084D1100084D110008000000004E
:100080004D1100084D110008000000004D1100083E
:100090004D1100084D1100084D1100084D110008C8
:1000A0004D1100084D1100084D1100084D110008B8
:1000B0004D110008000000000000000000000000DA
:1000C000002934D00123002210B488422CD301240B
:1000D0002407A14204D2814202D209011B01F8E7A0
:1000E000E400A14204D2814202D249005B00F8E759
:1000F000884201D3401A1A434C08A04202D3001B85
:100100005C0822438C08A04202D3001B9C082243B7
:10011000CC08A04202D3001BDC082243002803D0F5
:100120001B0901D00909E3E7100010BC704701B5B5
:10013000002000F00BF802BD0029F8D003B5FFF74E
:10014000C1FF0EBC4243891A1847C0467047C046DB
:1001500010B5064C2378002B07D1054B002B02D09D
:10016000044800E000BF0123237010BD0C000020F4
:1001700000000000A8110008044B10B5002B03D0AC
:100180000349044800E000BF10BDC0460000000065
:1001900010000020A811000870B588B003AC14222C
:1001A0000021200000F0D3FF1D4B5A698021090374
:1001B0000A435A615A690A400092009A5A6980219A
:1001C000C9030A435A615A690A400192019A5A695D
:1001D000802189020A435A615B690B400293029BAA
:1001E0009026F60500222021300000F027FF802312
:1001F0009B01039384239B03049300250595210011
:10020000084800F055FE202303931F3B04930595F7
:1002100006952100300000F04BFE08B070BDC046CE
:10022000001002400008004872B6FEE710B50B4807
:100230000B4B036096231B02436000238360C36063
:1002400003610C2242618361C3610362436200F077
:100250009BFA002800D110BDFFF7E6FF2800002020
:100260000044004010B590B004AC302200212000C2
:1002700000F06DFF10220021684600F068FF0223A5
:100280000493012207920F3208920C93A0239B0340
:100290000E93200000F0AEFA00280ED16846072326
:1002A0000093053B0193002302930393012100F087
:1002B00001FD002803D110B010BDFFF7B5FFFFF717
:1002C000B3FF70B500F0C0FDFFF7CCFFFFF764FF90
:1002D000FFF7ACFF9025ED0501222021280000F05A
:1002E000ADFEFA246400200000F0D0FD00222021A1
:1002F000280000F0A3FE200000F0C8FDEAE7FEE7BA
:10030000FEE77047704710B500F0AEFD10BD00006D
:1003100082B00A4B996901221143996199690A4097
:100320000092009ADA69802149050A43DA61DB69A3
:100330000B400193019B02B07047C0460010024081
:1003400010B588B004001422002103A800F0FFFEBD
:100350002268114B9A4201D008B010BD0F4BD969E9
:10036000802292021143D961D9691140019101990A
:100370005969114359615B6913400293029B03A9B8
:100380000C2303930A3B4B60013B0B619020C0059B
:1003900000F08EFDE0E7C04600440040001002403F
:1003A00010B5EFF3108C012282F3108801680B68FE
:1003B000124C23400B608CF31088EFF3108C82F307
:1003C000108801688B6893438B608CF31088036EF0
:1003D000012B06D080232022C250002303668366AF
:1003E00010BDEFF3108183F3108802681368323474
:1003F000FF34A343136081F31088EBE7DFFEFFFFB8
:1004000010B5040083680269134342691343C2694B
:10041000134301680A684548024013430B60226891
:10042000536843490B40E1680B435360A369226A58
:100430001A4321688B683F48034013438B6023684D
:100440003D4A934211D03D4A93421FD01023E069A8
:1004500080221202904221D0042B64D047D8002B76
:100460004AD0022B25D136484AE0364B1A6B03237B
:100470001340022B0CD005D8002BE8D0012B09D15A
:100480000333E4E7032B07D1013BE0E70023DEE77A
:100490000823DCE71023DAE71023D8E7042B23D066
:1004A00005D8002B07D0022B03D1254807E0082BE5
:1004B00005D0012033E000F091FC00282ED0400050
:1004C00061684B08C018FFF7FBFD0200103A1E4B95
:1004D0009A42EED882B20F239A434008083B034069
:1004E00013432268D36019E000F0B8FBE5E7082B5E
:1004F000DFD18020000203E000F070FC00280DD066
:1005000061684B081818FFF7DBFD0200103A0E4B2C
:100510009A42CED823680004000CD8600020002343
:10052000A366E36610BD00F099FBE7E7F369FFFF00
:10053000FFCFFFFFFFF4FFFF003801400044004001
:1005400000127A0000100240EFFF0000436A1B0710
:1005500006D5026853682C490B40416B0B4353602E
:10056000436ADB0706D50268536828490B40816A55
:100570000B435360436A9B0706D5026853682449BE
:100580000B40C16A0B435360436A5B0706D50268A0
:10059000536820490B40016B0B435360436ADB06F1
:1005A00006D5026893681C490B40816B0B4393602E
:1005B000436A9B0606D50268936818490B40C16BD5
:1005C0000B439360436A5B060BD50268536814497A
:1005D0000B40016C0B435360026C80235B039A4217
:1005E0000AD0436A1B0606D5026853680D490B40C2
:1005F000816C0B4353607047026853680A490B4093
:10060000416C0B435360ECE7FF7FFFFFFFFFFDFFF3
:10061000FFFFFEFFFFFFFBFFFFEFFFFFFFDFFFFF1F
:10062000FFFFEFFFFFFFF7FFFFFF9FFFF0B5C6469D
:1006300000B505000C0016009846069F2B68DB6984
:1006400023401B1B5A425341B34231D17B1CF5D08E
:1006500000F016FC4346C01AB8421BD8002F19D030
:100660002A6813685B07E9D5802CE7D0402CE5D0D9
:10067000D3691B0710D4D3691B05DFD580231B0169
:1006800013622800FFF78CFE84232022EA500C3BE3
:100690000022EA5403200CE0082414622800FFF72B
:1006A0007FFE8423EC500C3B0022EA54012000E042
:1006B000002080BCB846F0BD30B583B00400842370
:1006C0000022C25000F0DCFB050023681B681B07FA
:1006D0000FD423681B685B0729D42023E36780229B
:1006E000A350002323666366083AA354002003B096
:1006F00030BD8021224B009303000022890320009B
:10070000FFF794FF0028E4D0EFF31081012383F377
:1007100010882268136880208343136081F3108857
:100720002023E36758330022E2540320DFE78021CF
:10073000134B00932B000022C9032000FFF776FF24
:100740000028CAD0EFF31080012282F310882168BC
:100750000B680C4D2B400B6080F31088EFF310807A
:1007600082F3108821688B6893438B6080F3108834
:1007700080231F32E250083B0022E254D5E7C046F6
:10078000FFFFFF01DFFEFFFF10B5041E2ED0C36F79
:10079000002B21D02423E3672268136801218B43B7
:1007A0001360636A002B1DD12000FFF729FE01288A
:1007B00011D0226853680E490B4053602268936839
:1007C00008218B4393602268136807390B43136039
:1007D0002000FFF771FF10BD78330022C254FFF7ED
:1007E000AFFDD7E72000FFF7B1FEDDE70120F2E71C
:1007F000FFF7FFFF70B582B0041E1DD00368DB0752
:1008000027D5AC4B5A680C231340042B1AD0A94BA4
:100810005A680C231340082B10D06368012B3DD07D
:10082000002B51D1A34B1A68A3490A401A601A68D9
:10083000A2490A401A6037E0012095E09D4B5B68B1
:10084000DB03EAD59B4B1B689B0302D56368002B37
:10085000F2D023689B076FD5964B5B680C221A4237
:100860005BD0944B5A680C231340082B51D0E3689B
:10087000002B00D183E08F4A136801210B431360E2
:1008800000F0FEFA05008B4B1B689B0700D56DE05E
:1008900000F0F6FA401B0228F5D964E0854A116899
:1008A00080235B020B4313606368002B24D000F0AD
:1008B000E7FA05007F4B1B689B03CAD400F0E0FAFF
:1008C000401B6428F6D94EE0052B09D0794B1A68F5
:1008D00079490A401A601A6878490A401A60E3E7C1
:1008E000744B19688022D2020A431A601968802268
:1008F00052020A431A60D7E700F0C2FA05006D4BB6
:100900001B689B03A5D500F0BBFA401B6428F6D9F1
:1009100029E0684B5B68DB03A9D4664B1B689B0727
:1009200002D5E368012B87D162490B68F822934313
:100930002269D20013430B6023681B0743D5E36988
:10094000002B2ED05B4A536A01210B43536200F007
:1009500097FA0500574B5B6A9B0734D400F090FA76
:10096000401B0228F6D9032002B070BD51490B6824
:10097000F82293432269D20013430B60DCE74D4A0F
:10098000136801218B43136000F07AFA0500494B8C
:100990001B689B07D0D500F073FA401B0228F6D9DC
:1009A000E1E7444A536A01218B43536200F068FA3D
:1009B0000500404B5B6A9B0705D500F061FA401BC0
:1009C0000228F6D9CFE723685B0700D47EE0394BD5
:1009D000DB69DB001ED4374BDA69802149050A4305
:1009E000DA61DB690B400193019B01231E00344B4C
:1009F0001B68DB0511D5A368012B21D0002B35D155
:100A00002C4B1A6A01218A431A621A6A03318A43FB
:100A10001A621AE000231E00E9E7294A11688023C0
:100A20005B000B43136000F02BFA0500244B1B689E
:100A3000DB05E0D400F024FA401B6428F6D992E7E5
:100A40001C4A136A01210B431362A368002B23D0B5
:100A500000F016FA0500174B1B6A9B0734D400F010
:100A60000FFA401B174B9842F5D97CE7052B09D0AC
:100A7000104B1A6A01218A431A621A6A03318A43A7
:100A80001A62E2E70B4B1A6A04210A431A621A6AD5
:100A900003390A431A62D8E700F0F2F90500054B62
:100AA0001B6A9B0710D500F0EBF9401B054B9842E1
:100AB000F5D958E700100240FFFFFEFFFFFFFBFFE4
:100AC0000070004088130000012E32D02368DB063E
:100AD00010D56369012B32D005334FD15B4A536B7C
:100AE00004218B435363536BF4318B43A169C900D9
:100AF0000B435363236A002B00D188E0534A5168AB
:100B00000C220A40082A00D183E0022B4CD04F4A25
:100B100013684F490B40136000F0B2F904004B4BCF
:100B20001B689B0173D500F0ABF9001B0228F6D9B6
:100B300019E7464AD36947490B40D361C6E7434B9F
:100B40005A6B04210A435A635A6B03390A435A63A6
:100B500000F096F905003D4B5B6B9B0705D400F058
:100B60008FF9401B0228F6D9FDE638494B6BF82275
:100B70009343A269D20013434B63BBE7334B5A6BD9
:100B800004210A435A635A6B03398A435A6300F0BB
:100B900077F905002D4B5B6B9B07ABD500F070F927
:100BA000401B0228F6D9DEE6284A136828490B4084
:100BB000136000F065F90500244B1B689B0105D507
:100BC00000F05EF9401B0228F6D9CCE61F4BDA6A2A
:100BD0000F218A43E16A0A43DA625A681E490A40D1
:100BE000A16A606A01430A435A601968802252046C
:100BF0000A431A6000F044F90400144B1B689B017F
:100C000005D400F03DF9001B0228F6D9ABE6002020
:100C1000AAE6012B00D10FE60C4B5A68D86A802354
:100C20005B021340616A8B4200D005E60F2303404C
:100C3000E16A8B4200D0FFE5F0239B031A40A36AD0
:100C40009A4201D100208FE601208DE6001002407B
:100C5000FFFFFFFEFFFFFFEFFFFFC2FF10B5114BCD
:100C60005A680C231340082B01D00F4810BD910C7B
:100C7000073319400D48445C0A49C96A0B400C49C6
:100C8000C95CD20305D50848FFF71AFA444320008F
:100C9000ECE76201121B93019B1ADB00A44663443C
:100CA0001802E3E70010024000127A00D011000899
:100CB000C011000870B504000D0000284AD03E4B5A
:100CC0001A68012313408B4209D23B490B68012269
:100CD00093432B430B600B681A40AA423AD1236816
:100CE0009A070ED55B0705D5344A5168E023DB002F
:100CF0000B435360314A5368F0218B43A1680B4387
:100D000053602368DB072CD56368012B1ED0022BB0
:100D100022D02A4A126892071CD528494A68032023
:100D2000824313434B6000F0ABF80600234B5B6833
:100D30000C221A4063689B009A4212D000F0A0F87F
:100D4000801B1F4B9842F1D9032004E01B4A126814
:100D50009203E2D4012070BD184A12689201DCD4DB
:100D6000F8E7154B1A6801231340AB4209D9124921
:100D70000B68012293432B430B600B681A40AA4275
:100D8000E8D123685B0706D50C4A53680D490B4030
:100D9000E1680B435360FFF761FF084B5A68120983
:100DA0000F231340084AD35CD840084B186000203A
:100DB00000F024F80020CEE700200240001002409E
:100DC00088130000FFF8FFFFE8110008080000206A
:100DD000014B18687047C0460800002010B5FFF7A7
:100DE000F7FF044B5A68120A07231340024AD35CE8
:100DF000D84010BD00100240E011000870B5050099
:100E00000E4B1C680E4B1978FA208000FFF758F93A
:100E100001002000FFF754F900F06AF9002801D121
:100E2000032D01D9012070BD01200022290040427C
:100E300000F05AF9034B1D600020F4E70800002081
:100E4000000000200400002010B5064A136810219D
:100E50000B4313600020FFF7D1FFFFF759FA002082
:100E600010BDC04600200240034A1168034B1B78A6
:100E70005B1813607047C046B000002000000020DF
:100E8000014B18687047C046B000002070B50400E0
:100E9000FFF7F6FF0500631C02D0044B1B78E41833
:100EA000FFF7EEFF401BA042FAD370BD0000002008
:100EB000F0B583B00400002356E0A6685F0003206D
:100EC000B8408643C868B8403043A060606890432B
:100ED0004E683609012232409A400243626053E074
:100EE000DE080836B600375905321A4092000F2046
:100EF000904087430869904002003A43325156E0DF
:100F0000032600E00026864030003843023292007B
:100F1000444E9051444A9768EA433E00AE434868C5
:100F2000C00201D53E002E433F488660C7683E00A0
:100F300016404868800201D53E002E433A48C660FC
:100F400047683E0016404868800301D53E002E43A6
:100F500035484660066832404868C00301D52A001B
:100F6000324331480260013308680200DA4056D04B
:100F700001229A40050015401042F4D04E6803202B
:100F800030400138012898D9486803220240032ADA
:100F900008D0E0685E000322B24090438A68B24005
:100FA0000243E260486803220240022A98D0206887
:100FB0005E0003221700B740B8434F683A40B24082
:100FC000024322604868C02292021042CBD01748E8
:100FD0008669012216438661806902400192019A66
:100FE0009A08901C80000F4E8759032018408000FB
:100FF0000F268640B7439026F605B44282D00C4EA9
:10100000B44208D00B4EB44207D00B4EB44200D1CC
:1010100076E7052677E7012675E7022673E703B032
:10102000F0BDC04600000140000401400010024035
:101030000004004800080048000C0048002A01D0C5
:10104000816170478162FCE770B5002813DB83087B
:10105000C0339B00144C1A59944603221040C00020
:10106000FC32150085406646AE4389010A40824045
:1010700032431A5170BD0F230340083B9B080633CF
:101080009B000A4A944663445A68944603221040DF
:10109000C000FC32140084406546A54389010A4023
:1010A00082402A435A60E5E700E100E000ED00E0FD
:1010B00001380A4B98420FD8094A50600948036A20
:1010C0001B021B0AC02109060B4303620023936025
:1010D00007331360002070470120FCE7FFFFFF008B
:1010E00010E000E000ED00E010B5FFF7ADFF10BD2F
:1010F00010B5FFF7DDFF10BD704700000D488546B5
:10110000FFF7FAFF0C480D490D4A002302E0D458BE
:10111000C4500433C4188C42F9D30A4A0A4C002341
:1011200001E013600432A242FBD300F019F8FFF78C
:10113000C8F8FEE700200020000000200C0000207E
:10114000001200080C000020B4000020FEE703009D
:101150008218934200D1704719700133F9E70000FB
:1011600070B500260C4C0D4D641BA410A64209D18D
:10117000002600F019F80A4C0A4D641BA410A64280
:1011800005D170BDB300EB5898470136EEE7B300C8
:10119000EB5898470136F2E7F8110008F8110008FB
:1011A000FC110008F8110008F8B5C046F8BC08BCEE
:1011B0009E467047F8B5C046F8BC08BC9E467047CE
:1011C0000102030405060708090A0B0C0D0E0F1097
:1011D00002030405060708090A0B0C0D0E0F101078
:1011E00000000000010203040000000000000000F5
:0811F0000102030406070809CF
:0411F8007901000871
:0411FC005101000895
:0C120000010000000400000000127A0051
:04000005080010FDE2
:00000001FF
